{
  "contractName": "Agreement",
  "abi": [
    {
      "anonymous": false,
      "inputs": [
        {
          "indexed": true,
          "internalType": "uint256",
          "name": "agreementId",
          "type": "uint256"
        },
        {
          "indexed": false,
          "internalType": "enum Agreement.Status",
          "name": "status",
          "type": "uint8"
        }
      ],
      "name": "AgreementAccepted",
      "type": "event"
    },
    {
      "anonymous": false,
      "inputs": [
        {
          "indexed": true,
          "internalType": "uint256",
          "name": "agreementId",
          "type": "uint256"
        },
        {
          "indexed": false,
          "internalType": "uint256",
          "name": "duration",
          "type": "uint256"
        },
        {
          "indexed": false,
          "internalType": "enum Agreement.Status",
          "name": "status",
          "type": "uint8"
        }
      ],
      "name": "AgreementStored",
      "type": "event"
    },
    {
      "anonymous": false,
      "inputs": [
        {
          "indexed": true,
          "internalType": "uint256",
          "name": "agreementId",
          "type": "uint256"
        },
        {
          "indexed": false,
          "internalType": "enum Agreement.Status",
          "name": "newStatus",
          "type": "uint8"
        }
      ],
      "name": "StatusChanged",
      "type": "event"
    },
    {
      "inputs": [
        {
          "internalType": "uint256",
          "name": "",
          "type": "uint256"
        }
      ],
      "name": "agreements",
      "outputs": [
        {
          "internalType": "uint256",
          "name": "duration",
          "type": "uint256"
        },
        {
          "internalType": "enum Agreement.Status",
          "name": "status",
          "type": "uint8"
        }
      ],
      "stateMutability": "view",
      "type": "function",
      "constant": true
    },
    {
      "inputs": [
        {
          "internalType": "uint256",
          "name": "_duration",
          "type": "uint256"
        },
        {
          "internalType": "enum Agreement.Status",
          "name": "_status",
          "type": "uint8"
        }
      ],
      "name": "storeAgreement",
      "outputs": [],
      "stateMutability": "nonpayable",
      "type": "function"
    },
    {
      "inputs": [
        {
          "internalType": "uint256",
          "name": "_agreementId",
          "type": "uint256"
        },
        {
          "internalType": "enum Agreement.Status",
          "name": "_newStatus",
          "type": "uint8"
        }
      ],
      "name": "changeStatus",
      "outputs": [],
      "stateMutability": "nonpayable",
      "type": "function"
    }
  ],
  "bytecode": "0x608060405234801561000f575f80fd5b5061054b8061001d5f395ff3fe608060405234801561000f575f80fd5b506004361061003f575f3560e01c8063bd14de9614610043578063c5a8a2ab14610074578063d10b257714610090575b5f80fd5b61005d600480360381019061005891906102c2565b6100ac565b60405161006b92919061036f565b60405180910390f35b61008e600480360381019061008991906103b9565b6100e6565b005b6100aa60048036038101906100a591906103b9565b6101b1565b005b5f81815481106100ba575f80fd5b905f5260205f2090600202015f91509050805f015490806001015f9054906101000a900460ff16905082565b5f80549050821061012c576040517f08c379a000000000000000000000000000000000000000000000000000000000815260040161012390610451565b60405180910390fd5b805f83815481106101405761013f61046f565b5b905f5260205f2090600202016001015f6101000a81548160ff021916908360058111156101705761016f6102fc565b5b0217905550817f365a3d0a71be5f440c8224437355d5bd81a703759bf906e441902272bfbafcb3826040516101a5919061049c565b60405180910390a25050565b5f60405180604001604052808481526020018360058111156101d6576101d56102fc565b5b815250908060018154018082558091505060019003905f5260205f2090600202015f909190919091505f820151815f01556020820151816001015f6101000a81548160ff02191690836005811115610231576102306102fc565b5b021790555050505f60015f8054905061024a91906104e2565b9050807fce6969e5758582e19780b5fb4e46f5058499058e051f5f51fce95b937ed3d6d8848460405161027e92919061036f565b60405180910390a2505050565b5f80fd5b5f819050919050565b6102a18161028f565b81146102ab575f80fd5b50565b5f813590506102bc81610298565b92915050565b5f602082840312156102d7576102d661028b565b5b5f6102e4848285016102ae565b91505092915050565b6102f68161028f565b82525050565b7f4e487b71000000000000000000000000000000000000000000000000000000005f52602160045260245ffd5b6006811061033a576103396102fc565b5b50565b5f81905061034a82610329565b919050565b5f6103598261033d565b9050919050565b6103698161034f565b82525050565b5f6040820190506103825f8301856102ed565b61038f6020830184610360565b9392505050565b600681106103a2575f80fd5b50565b5f813590506103b381610396565b92915050565b5f80604083850312156103cf576103ce61028b565b5b5f6103dc858286016102ae565b92505060206103ed858286016103a5565b9150509250929050565b5f82825260208201905092915050565b7f41677265656d656e7420494420646f6573206e6f7420657869737400000000005f82015250565b5f61043b601b836103f7565b915061044682610407565b602082019050919050565b5f6020820190508181035f8301526104688161042f565b9050919050565b7f4e487b71000000000000000000000000000000000000000000000000000000005f52603260045260245ffd5b5f6020820190506104af5f830184610360565b92915050565b7f4e487b71000000000000000000000000000000000000000000000000000000005f52601160045260245ffd5b5f6104ec8261028f565b91506104f78361028f565b925082820390508181111561050f5761050e6104b5565b5b9291505056fea2646970667358221220a771d02eaf1f17f8d4ba19a32375e5a321c47de34d64485b3246c5759ffa2bd964736f6c63430008150033",
  "immutableReferences": {},
  "source": "// SPDX-License-Identifier: MIT\npragma solidity ^0.8.0;\n\ncontract Agreement {\n    // Enum for agreement status\n    enum Status { Pending, Refused, Accepted, Canceled, InProgress, Terminated }\n\n    // Struct for agreement\n    struct AgreementData {\n        uint duration;\n        Status status;\n    }\n\n    // Array to store agreements\n    AgreementData[] public agreements;\n\n// Event emitted when a new agreement is stored\nevent AgreementStored(uint indexed agreementId, uint duration, Status status);\n\n// Event emitted when agreement status is changed\nevent StatusChanged(uint indexed agreementId, Status newStatus);\n\n// Event emitted when agreement status is changed to Accepted\nevent AgreementAccepted(uint indexed agreementId, Status status);\n\n    // Function to store a new agreement\n    function storeAgreement(uint _duration, Status _status) external {\n        agreements.push(AgreementData(_duration, _status));\n        uint agreementId = agreements.length - 1;\n        emit AgreementStored(agreementId, _duration, _status);\n    }\n\n\n    // Function to change the status of an existing agreement\n    function changeStatus(uint _agreementId, Status _newStatus) external {\n        require(_agreementId < agreements.length, \"Agreement ID does not exist\");\n        agreements[_agreementId].status = _newStatus;\n        emit StatusChanged(_agreementId, _newStatus);\n    }\n}",
  "sourcePath": "/home/fraisier/testbed/smart-contracts/contracts/sla-3.sol",
  "compiler": {
    "name": "solc",
    "version": "0.8.21+commit.d9974bed.Emscripten.clang"
  },
  "schemaVersion": "3.4.16",
  "updatedAt": "2024-06-04T15:57:52.744Z",
  "networkType": "ethereum",
  "devdoc": {
    "kind": "dev",
    "methods": {},
    "version": 1
  },
  "userdoc": {
    "kind": "user",
    "methods": {},
    "version": 1
  }
}