{
  "contractName": "Marketplace",
  "abi": [
    {
      "anonymous": false,
      "inputs": [
        {
          "indexed": false,
          "internalType": "address",
          "name": "clientAddress",
          "type": "address"
        },
        {
          "indexed": false,
          "internalType": "string",
          "name": "name",
          "type": "string"
        }
      ],
      "name": "ClientRegisteredEvent",
      "type": "event"
    },
    {
      "anonymous": false,
      "inputs": [
        {
          "indexed": false,
          "internalType": "uint256",
          "name": "componentId",
          "type": "uint256"
        },
        {
          "indexed": false,
          "internalType": "string",
          "name": "name",
          "type": "string"
        },
        {
          "indexed": false,
          "internalType": "uint256",
          "name": "price",
          "type": "uint256"
        },
        {
          "indexed": false,
          "internalType": "string",
          "name": "information",
          "type": "string"
        },
        {
          "indexed": false,
          "internalType": "address",
          "name": "provider",
          "type": "address"
        }
      ],
      "name": "NewComponentAddedEvent",
      "type": "event"
    },
    {
      "anonymous": false,
      "inputs": [
        {
          "indexed": false,
          "internalType": "address",
          "name": "providerAddress",
          "type": "address"
        },
        {
          "indexed": false,
          "internalType": "string",
          "name": "name",
          "type": "string"
        }
      ],
      "name": "ProviderRegisteredEvent",
      "type": "event"
    },
    {
      "anonymous": false,
      "inputs": [
        {
          "indexed": false,
          "internalType": "uint256",
          "name": "contractId",
          "type": "uint256"
        },
        {
          "indexed": false,
          "internalType": "uint8",
          "name": "rating",
          "type": "uint8"
        }
      ],
      "name": "SLAContractRatedEvent",
      "type": "event"
    },
    {
      "anonymous": false,
      "inputs": [
        {
          "indexed": false,
          "internalType": "uint256",
          "name": "contractId",
          "type": "uint256"
        },
        {
          "indexed": false,
          "internalType": "uint256",
          "name": "componentId",
          "type": "uint256"
        },
        {
          "indexed": false,
          "internalType": "address",
          "name": "client",
          "type": "address"
        },
        {
          "indexed": false,
          "internalType": "uint256",
          "name": "rentalDuration",
          "type": "uint256"
        },
        {
          "indexed": false,
          "internalType": "uint256",
          "name": "rentEndTime",
          "type": "uint256"
        }
      ],
      "name": "SlaContractsCreatedEvent",
      "type": "event"
    },
    {
      "inputs": [],
      "name": "clientCount",
      "outputs": [
        {
          "internalType": "uint256",
          "name": "",
          "type": "uint256"
        }
      ],
      "stateMutability": "view",
      "type": "function",
      "constant": true
    },
    {
      "inputs": [],
      "name": "componentCount",
      "outputs": [
        {
          "internalType": "uint256",
          "name": "",
          "type": "uint256"
        }
      ],
      "stateMutability": "view",
      "type": "function",
      "constant": true
    },
    {
      "inputs": [
        {
          "internalType": "uint256",
          "name": "",
          "type": "uint256"
        }
      ],
      "name": "components",
      "outputs": [
        {
          "internalType": "bool",
          "name": "exists",
          "type": "bool"
        },
        {
          "internalType": "string",
          "name": "name",
          "type": "string"
        },
        {
          "internalType": "uint256",
          "name": "price",
          "type": "uint256"
        },
        {
          "internalType": "string",
          "name": "information",
          "type": "string"
        },
        {
          "internalType": "address",
          "name": "provider",
          "type": "address"
        }
      ],
      "stateMutability": "view",
      "type": "function",
      "constant": true
    },
    {
      "inputs": [],
      "name": "contractCount",
      "outputs": [
        {
          "internalType": "uint256",
          "name": "",
          "type": "uint256"
        }
      ],
      "stateMutability": "view",
      "type": "function",
      "constant": true
    },
    {
      "inputs": [],
      "name": "providerCount",
      "outputs": [
        {
          "internalType": "uint256",
          "name": "",
          "type": "uint256"
        }
      ],
      "stateMutability": "view",
      "type": "function",
      "constant": true
    },
    {
      "inputs": [
        {
          "internalType": "uint256",
          "name": "",
          "type": "uint256"
        }
      ],
      "name": "slaContracts",
      "outputs": [
        {
          "internalType": "uint256",
          "name": "componentId",
          "type": "uint256"
        },
        {
          "internalType": "address",
          "name": "client",
          "type": "address"
        },
        {
          "internalType": "uint256",
          "name": "rentalDuration",
          "type": "uint256"
        },
        {
          "internalType": "uint256",
          "name": "rentalPrice",
          "type": "uint256"
        },
        {
          "internalType": "uint256",
          "name": "rentStartTime",
          "type": "uint256"
        },
        {
          "internalType": "uint256",
          "name": "rentEndTime",
          "type": "uint256"
        },
        {
          "internalType": "bool",
          "name": "isCompleted",
          "type": "bool"
        }
      ],
      "stateMutability": "view",
      "type": "function",
      "constant": true
    },
    {
      "inputs": [
        {
          "internalType": "string",
          "name": "name",
          "type": "string"
        }
      ],
      "name": "registerClient",
      "outputs": [],
      "stateMutability": "nonpayable",
      "type": "function"
    },
    {
      "inputs": [
        {
          "internalType": "address",
          "name": "_clientAddress",
          "type": "address"
        }
      ],
      "name": "clientHasAccount",
      "outputs": [
        {
          "internalType": "bool",
          "name": "",
          "type": "bool"
        }
      ],
      "stateMutability": "view",
      "type": "function",
      "constant": true
    },
    {
      "inputs": [],
      "name": "getAllClients",
      "outputs": [
        {
          "internalType": "address[]",
          "name": "",
          "type": "address[]"
        }
      ],
      "stateMutability": "view",
      "type": "function",
      "constant": true
    },
    {
      "inputs": [
        {
          "internalType": "string",
          "name": "name",
          "type": "string"
        }
      ],
      "name": "registerProvider",
      "outputs": [],
      "stateMutability": "nonpayable",
      "type": "function"
    },
    {
      "inputs": [
        {
          "internalType": "address",
          "name": "_providerAddress",
          "type": "address"
        }
      ],
      "name": "providerHasAccount",
      "outputs": [
        {
          "internalType": "bool",
          "name": "",
          "type": "bool"
        }
      ],
      "stateMutability": "view",
      "type": "function",
      "constant": true
    },
    {
      "inputs": [
        {
          "internalType": "address",
          "name": "_provider",
          "type": "address"
        }
      ],
      "name": "getProviderRating",
      "outputs": [
        {
          "internalType": "uint256",
          "name": "",
          "type": "uint256"
        },
        {
          "internalType": "uint256",
          "name": "",
          "type": "uint256"
        }
      ],
      "stateMutability": "view",
      "type": "function",
      "constant": true
    },
    {
      "inputs": [],
      "name": "getAllProviders",
      "outputs": [
        {
          "internalType": "address[]",
          "name": "",
          "type": "address[]"
        }
      ],
      "stateMutability": "view",
      "type": "function",
      "constant": true
    },
    {
      "inputs": [
        {
          "internalType": "string",
          "name": "_name",
          "type": "string"
        },
        {
          "internalType": "uint256",
          "name": "price",
          "type": "uint256"
        },
        {
          "internalType": "string",
          "name": "information",
          "type": "string"
        }
      ],
      "name": "addComponent",
      "outputs": [],
      "stateMutability": "nonpayable",
      "type": "function"
    },
    {
      "inputs": [
        {
          "internalType": "uint256",
          "name": "_componentId",
          "type": "uint256"
        }
      ],
      "name": "getComponent",
      "outputs": [
        {
          "internalType": "string",
          "name": "",
          "type": "string"
        },
        {
          "internalType": "uint256",
          "name": "",
          "type": "uint256"
        },
        {
          "internalType": "string",
          "name": "",
          "type": "string"
        },
        {
          "internalType": "address",
          "name": "",
          "type": "address"
        }
      ],
      "stateMutability": "view",
      "type": "function",
      "constant": true
    },
    {
      "inputs": [
        {
          "internalType": "uint256",
          "name": "_componentId",
          "type": "uint256"
        }
      ],
      "name": "getComponentPrice",
      "outputs": [
        {
          "internalType": "uint256",
          "name": "",
          "type": "uint256"
        }
      ],
      "stateMutability": "view",
      "type": "function",
      "constant": true
    },
    {
      "inputs": [],
      "name": "getAllComponents",
      "outputs": [
        {
          "internalType": "uint256[]",
          "name": "",
          "type": "uint256[]"
        }
      ],
      "stateMutability": "view",
      "type": "function",
      "constant": true
    },
    {
      "inputs": [
        {
          "internalType": "uint256",
          "name": "_componentId",
          "type": "uint256"
        },
        {
          "internalType": "uint256",
          "name": "_rentalDuration",
          "type": "uint256"
        }
      ],
      "name": "rentComponent",
      "outputs": [],
      "stateMutability": "payable",
      "type": "function",
      "payable": true
    },
    {
      "inputs": [
        {
          "internalType": "uint256",
          "name": "_contractId",
          "type": "uint256"
        },
        {
          "internalType": "uint8",
          "name": "_rating",
          "type": "uint8"
        }
      ],
      "name": "rateSLAContract",
      "outputs": [],
      "stateMutability": "nonpayable",
      "type": "function"
    },
    {
      "inputs": [
        {
          "internalType": "uint256",
          "name": "_contractId",
          "type": "uint256"
        }
      ],
      "name": "getSLAContract",
      "outputs": [
        {
          "internalType": "uint256",
          "name": "",
          "type": "uint256"
        },
        {
          "internalType": "address",
          "name": "",
          "type": "address"
        },
        {
          "internalType": "uint256",
          "name": "",
          "type": "uint256"
        },
        {
          "internalType": "uint256",
          "name": "",
          "type": "uint256"
        },
        {
          "internalType": "uint256",
          "name": "",
          "type": "uint256"
        },
        {
          "internalType": "bool",
          "name": "",
          "type": "bool"
        }
      ],
      "stateMutability": "view",
      "type": "function",
      "constant": true
    },
    {
      "inputs": [],
      "name": "getAllSLAContracts",
      "outputs": [
        {
          "internalType": "uint256[]",
          "name": "",
          "type": "uint256[]"
        }
      ],
      "stateMutability": "view",
      "type": "function",
      "constant": true
    }
  ],
  "bytecode": "0x608060405234801561000f575f80fd5b50612a968061001d5f395ff3fe608060405260043610610129575f3560e01c80636a7b9364116100aa578063c5d574fe1161006e578063c5d574fe146103f3578063d9ac402214610433578063da1f74091461045b578063e141b96d14610497578063e4d7a3d4146104d8578063e541c71e1461050257610129565b80636a7b9364146102f957806374c83268146103355780638736381a1461035f5780639ce9e42314610389578063b4094bd9146103b157610129565b806341aad1ea116100f157806341aad1ea146102105780634390b9461461024c5780634c6448fe146102685780634f27da181461029057806366fadf0b146102cf57610129565b8063017a3ccf1461012d5780631fe26e9d1461016a5780632b515010146101945780633780759e146101be5780633bb4497c146101e6575b5f80fd5b348015610138575f80fd5b50610153600480360381019061014e91906118ff565b61052c565b604051610161929190611942565b60405180910390f35b348015610175575f80fd5b5061017e610582565b60405161018b9190611969565b60405180910390f35b34801561019f575f80fd5b506101a8610588565b6040516101b59190611a39565b60405180910390f35b3480156101c9575f80fd5b506101e460048036038101906101df9190611bbf565b6105de565b005b3480156101f1575f80fd5b506101fa6107da565b6040516102079190611cfe565b60405180910390f35b34801561021b575f80fd5b50610236600480360381019061023191906118ff565b610865565b6040516102439190611d38565b60405180910390f35b61026660048036038101906102619190611d51565b6108b9565b005b348015610273575f80fd5b5061028e60048036038101906102899190611d8f565b610bdb565b005b34801561029b575f80fd5b506102b660048036038101906102b19190611dd6565b610da3565b6040516102c69493929190611e8a565b60405180910390f35b3480156102da575f80fd5b506102e3610f73565b6040516102f09190611a39565b60405180910390f35b348015610304575f80fd5b5061031f600480360381019061031a9190611dd6565b610fc9565b60405161032c9190611969565b60405180910390f35b348015610340575f80fd5b5061034961104c565b6040516103569190611969565b60405180910390f35b34801561036a575f80fd5b50610373611052565b6040516103809190611969565b60405180910390f35b348015610394575f80fd5b506103af60048036038101906103aa9190611f11565b611058565b005b3480156103bc575f80fd5b506103d760048036038101906103d29190611dd6565b61137c565b6040516103ea9796959493929190611f4f565b60405180910390f35b3480156103fe575f80fd5b5061041960048036038101906104149190611dd6565b6113e5565b60405161042a959493929190611fbc565b60405180910390f35b34801561043e575f80fd5b5061045960048036038101906104549190611d8f565b61154e565b005b348015610466575f80fd5b50610481600480360381019061047c91906118ff565b611738565b60405161048e9190611d38565b60405180910390f35b3480156104a2575f80fd5b506104bd60048036038101906104b89190611dd6565b61178b565b6040516104cf9695949392919061201b565b60405180910390f35b3480156104e3575f80fd5b506104ec611803565b6040516104f99190611cfe565b60405180910390f35b34801561050d575f80fd5b5061051661188e565b6040516105239190611969565b60405180910390f35b5f805f60035f8573ffffffffffffffffffffffffffffffffffffffff1673ffffffffffffffffffffffffffffffffffffffff1681526020019081526020015f209050806003015481600201549250925050915091565b60075481565b6060600b8054806020026020016040519081016040528092919081815260200182805480156105d457602002820191905f5260205f20905b8154815260200190600101908083116105c0575b5050505050905090565b60035f3373ffffffffffffffffffffffffffffffffffffffff1673ffffffffffffffffffffffffffffffffffffffff1681526020019081526020015f205f015f9054906101000a900460ff16610669576040517f08c379a0000000000000000000000000000000000000000000000000000000008152600401610660906120c4565b60405180910390fd5b5f60075f81548092919061067c9061210f565b9190505590506040518060a001604052806001151581526020018581526020018481526020018381526020013373ffffffffffffffffffffffffffffffffffffffff1681525060065f8381526020019081526020015f205f820151815f015f6101000a81548160ff02191690831515021790555060208201518160010190816107059190612350565b506040820151816002015560608201518160030190816107259190612350565b506080820151816004015f6101000a81548173ffffffffffffffffffffffffffffffffffffffff021916908373ffffffffffffffffffffffffffffffffffffffff160217905550905050600881908060018154018082558091505060019003905f5260205f20015f90919091909150557f317de1d05244c01dd2dd518b9c7d00cd9ecff31a5d07d4edc1cd3e2877de17bf81858585336040516107cc95949392919061241f565b60405180910390a150505050565b6060600480548060200260200160405190810160405280929190818152602001828054801561085b57602002820191905f5260205f20905b815f9054906101000a900473ffffffffffffffffffffffffffffffffffffffff1673ffffffffffffffffffffffffffffffffffffffff1681526020019060010190808311610812575b5050505050905090565b5f60035f8373ffffffffffffffffffffffffffffffffffffffff1673ffffffffffffffffffffffffffffffffffffffff1681526020019081526020015f205f015f9054906101000a900460ff169050919050565b5f803373ffffffffffffffffffffffffffffffffffffffff1673ffffffffffffffffffffffffffffffffffffffff1681526020019081526020015f205f015f9054906101000a900460ff16610943576040517f08c379a000000000000000000000000000000000000000000000000000000000815260040161093a906124c8565b60405180910390fd5b8160065f8281526020019081526020015f205f015f9054906101000a900460ff166109a3576040517f08c379a000000000000000000000000000000000000000000000000000000000815260040161099a90612530565b60405180910390fd5b5f34116109e5576040517f08c379a00000000000000000000000000000000000000000000000000000000081526004016109dc906125be565b60405180910390fd5b5f82426109f291906125dc565b90505f6109fe85610fc9565b90505f603c85610a0e919061263c565b82610a19919061266c565b9050803414610a5d576040517f08c379a0000000000000000000000000000000000000000000000000000000008152600401610a54906126f7565b60405180910390fd5b6040518060e001604052808781526020013373ffffffffffffffffffffffffffffffffffffffff1681526020018681526020013481526020014281526020018481526020015f151581525060095f600a5481526020019081526020015f205f820151815f01556020820151816001015f6101000a81548173ffffffffffffffffffffffffffffffffffffffff021916908373ffffffffffffffffffffffffffffffffffffffff16021790555060408201518160020155606082015181600301556080820151816004015560a0820151816005015560c0820151816006015f6101000a81548160ff021916908315150217905550905050600b600a54908060018154018082558091505060019003905f5260205f20015f90919091909150557f3ba1e828b05e4dc5a8aba2defb3b60cf05f6df5622c673c879c5ae348990f9e2600a5487338887604051610bb4959493929190612715565b60405180910390a1600a5f815480929190610bce9061210f565b9190505550505050505050565b5f803373ffffffffffffffffffffffffffffffffffffffff1673ffffffffffffffffffffffffffffffffffffffff1681526020019081526020015f205f015f9054906101000a900460ff1615610c66576040517f08c379a0000000000000000000000000000000000000000000000000000000008152600401610c5d906127b0565b60405180910390fd5b6040518060400160405280600115158152602001828152505f803373ffffffffffffffffffffffffffffffffffffffff1673ffffffffffffffffffffffffffffffffffffffff1681526020019081526020015f205f820151815f015f6101000a81548160ff0219169083151502179055506020820151816001019081610cec9190612350565b50905050600133908060018154018082558091505060019003905f5260205f20015f9091909190916101000a81548173ffffffffffffffffffffffffffffffffffffffff021916908373ffffffffffffffffffffffffffffffffffffffff16021790555060025f815480929190610d629061210f565b91905055507fdc42cfde1962607da159d7a1b08438aba33fa26510c28d2a92b4b4fa5f8c57103382604051610d989291906127ce565b60405180910390a150565b60605f60605f8460065f8281526020019081526020015f205f015f9054906101000a900460ff16610e09576040517f08c379a0000000000000000000000000000000000000000000000000000000008152600401610e0090612530565b60405180910390fd5b5f60065f8881526020019081526020015f20905080600101816002015482600301836004015f9054906101000a900473ffffffffffffffffffffffffffffffffffffffff16838054610e5a90612183565b80601f0160208091040260200160405190810160405280929190818152602001828054610e8690612183565b8015610ed15780601f10610ea857610100808354040283529160200191610ed1565b820191905f5260205f20905b815481529060010190602001808311610eb457829003601f168201915b50505050509350818054610ee490612183565b80601f0160208091040260200160405190810160405280929190818152602001828054610f1090612183565b8015610f5b5780601f10610f3257610100808354040283529160200191610f5b565b820191905f5260205f20905b815481529060010190602001808311610f3e57829003601f168201915b50505050509150955095509550955050509193509193565b60606008805480602002602001604051908101604052809291908181526020018280548015610fbf57602002820191905f5260205f20905b815481526020019060010190808311610fab575b5050505050905090565b5f8160065f8281526020019081526020015f205f015f9054906101000a900460ff1661102a576040517f08c379a000000000000000000000000000000000000000000000000000000000815260040161102190612530565b60405180910390fd5b5f60065f8581526020019081526020015f209050806002015492505050919050565b60055481565b600a5481565b5f803373ffffffffffffffffffffffffffffffffffffffff1673ffffffffffffffffffffffffffffffffffffffff1681526020019081526020015f205f015f9054906101000a900460ff166110e2576040517f08c379a00000000000000000000000000000000000000000000000000000000081526004016110d9906124c8565b60405180910390fd5b60018160ff16101580156110fa575060058160ff1611155b611139576040517f08c379a000000000000000000000000000000000000000000000000000000000815260040161113090612846565b60405180910390fd5b5f60095f8481526020019081526020015f2090503373ffffffffffffffffffffffffffffffffffffffff16816001015f9054906101000a900473ffffffffffffffffffffffffffffffffffffffff1673ffffffffffffffffffffffffffffffffffffffff16146111de576040517f08c379a00000000000000000000000000000000000000000000000000000000081526004016111d5906128d4565b60405180910390fd5b80600501544211611224576040517f08c379a000000000000000000000000000000000000000000000000000000000815260040161121b9061293c565b60405180910390fd5b806006015f9054906101000a900460ff1615611275576040517f08c379a000000000000000000000000000000000000000000000000000000000815260040161126c906129a4565b60405180910390fd5b5f60035f60065f855f015481526020019081526020015f206004015f9054906101000a900473ffffffffffffffffffffffffffffffffffffffff1673ffffffffffffffffffffffffffffffffffffffff1673ffffffffffffffffffffffffffffffffffffffff1681526020019081526020015f2090508260ff16816003015f82825461130191906125dc565b92505081905550806002015f81548092919061131c9061210f565b91905055506001826006015f6101000a81548160ff0219169083151502179055507f18095dc6e65913fa7d19c10e51c0b33c253f580d481c39f7cf315f48aff1529f848460405161136e9291906129d1565b60405180910390a150505050565b6009602052805f5260405f205f91509050805f015490806001015f9054906101000a900473ffffffffffffffffffffffffffffffffffffffff1690806002015490806003015490806004015490806005015490806006015f9054906101000a900460ff16905087565b6006602052805f5260405f205f91509050805f015f9054906101000a900460ff169080600101805461141690612183565b80601f016020809104026020016040519081016040528092919081815260200182805461144290612183565b801561148d5780601f106114645761010080835404028352916020019161148d565b820191905f5260205f20905b81548152906001019060200180831161147057829003601f168201915b5050505050908060020154908060030180546114a890612183565b80601f01602080910402602001604051908101604052809291908181526020018280546114d490612183565b801561151f5780601f106114f65761010080835404028352916020019161151f565b820191905f5260205f20905b81548152906001019060200180831161150257829003601f168201915b505050505090806004015f9054906101000a900473ffffffffffffffffffffffffffffffffffffffff16905085565b60035f3373ffffffffffffffffffffffffffffffffffffffff1673ffffffffffffffffffffffffffffffffffffffff1681526020019081526020015f205f015f9054906101000a900460ff16156115da576040517f08c379a00000000000000000000000000000000000000000000000000000000081526004016115d190612a42565b60405180910390fd5b60405180608001604052806001151581526020018281526020015f81526020015f81525060035f3373ffffffffffffffffffffffffffffffffffffffff1673ffffffffffffffffffffffffffffffffffffffff1681526020019081526020015f205f820151815f015f6101000a81548160ff021916908315150217905550602082015181600101908161166d9190612350565b506040820151816002015560608201518160030155905050600433908060018154018082558091505060019003905f5260205f20015f9091909190916101000a81548173ffffffffffffffffffffffffffffffffffffffff021916908373ffffffffffffffffffffffffffffffffffffffff16021790555060055f8154809291906116f79061210f565b91905055507fe81f4a9bcca70bddbafa57cbc06aa205f5e23b57a70192daf99020056ba96237338260405161172d9291906127ce565b60405180910390a150565b5f805f8373ffffffffffffffffffffffffffffffffffffffff1673ffffffffffffffffffffffffffffffffffffffff1681526020019081526020015f205f015f9054906101000a900460ff169050919050565b5f805f805f805f60095f8981526020019081526020015f209050805f0154816001015f9054906101000a900473ffffffffffffffffffffffffffffffffffffffff16826002015483600301548460050154856006015f9054906101000a900460ff169650965096509650965096505091939550919395565b6060600180548060200260200160405190810160405280929190818152602001828054801561188457602002820191905f5260205f20905b815f9054906101000a900473ffffffffffffffffffffffffffffffffffffffff1673ffffffffffffffffffffffffffffffffffffffff168152602001906001019080831161183b575b5050505050905090565b60025481565b5f604051905090565b5f80fd5b5f80fd5b5f73ffffffffffffffffffffffffffffffffffffffff82169050919050565b5f6118ce826118a5565b9050919050565b6118de816118c4565b81146118e8575f80fd5b50565b5f813590506118f9816118d5565b92915050565b5f602082840312156119145761191361189d565b5b5f611921848285016118eb565b91505092915050565b5f819050919050565b61193c8161192a565b82525050565b5f6040820190506119555f830185611933565b6119626020830184611933565b9392505050565b5f60208201905061197c5f830184611933565b92915050565b5f81519050919050565b5f82825260208201905092915050565b5f819050602082019050919050565b6119b48161192a565b82525050565b5f6119c583836119ab565b60208301905092915050565b5f602082019050919050565b5f6119e782611982565b6119f1818561198c565b93506119fc8361199c565b805f5b83811015611a2c578151611a1388826119ba565b9750611a1e836119d1565b9250506001810190506119ff565b5085935050505092915050565b5f6020820190508181035f830152611a5181846119dd565b905092915050565b5f80fd5b5f80fd5b5f601f19601f8301169050919050565b7f4e487b71000000000000000000000000000000000000000000000000000000005f52604160045260245ffd5b611aa782611a61565b810181811067ffffffffffffffff82111715611ac657611ac5611a71565b5b80604052505050565b5f611ad8611894565b9050611ae48282611a9e565b919050565b5f67ffffffffffffffff821115611b0357611b02611a71565b5b611b0c82611a61565b9050602081019050919050565b828183375f83830152505050565b5f611b39611b3484611ae9565b611acf565b905082815260208101848484011115611b5557611b54611a5d565b5b611b60848285611b19565b509392505050565b5f82601f830112611b7c57611b7b611a59565b5b8135611b8c848260208601611b27565b91505092915050565b611b9e8161192a565b8114611ba8575f80fd5b50565b5f81359050611bb981611b95565b92915050565b5f805f60608486031215611bd657611bd561189d565b5b5f84013567ffffffffffffffff811115611bf357611bf26118a1565b5b611bff86828701611b68565b9350506020611c1086828701611bab565b925050604084013567ffffffffffffffff811115611c3157611c306118a1565b5b611c3d86828701611b68565b9150509250925092565b5f81519050919050565b5f82825260208201905092915050565b5f819050602082019050919050565b611c79816118c4565b82525050565b5f611c8a8383611c70565b60208301905092915050565b5f602082019050919050565b5f611cac82611c47565b611cb68185611c51565b9350611cc183611c61565b805f5b83811015611cf1578151611cd88882611c7f565b9750611ce383611c96565b925050600181019050611cc4565b5085935050505092915050565b5f6020820190508181035f830152611d168184611ca2565b905092915050565b5f8115159050919050565b611d3281611d1e565b82525050565b5f602082019050611d4b5f830184611d29565b92915050565b5f8060408385031215611d6757611d6661189d565b5b5f611d7485828601611bab565b9250506020611d8585828601611bab565b9150509250929050565b5f60208284031215611da457611da361189d565b5b5f82013567ffffffffffffffff811115611dc157611dc06118a1565b5b611dcd84828501611b68565b91505092915050565b5f60208284031215611deb57611dea61189d565b5b5f611df884828501611bab565b91505092915050565b5f81519050919050565b5f82825260208201905092915050565b5f5b83811015611e38578082015181840152602081019050611e1d565b5f8484015250505050565b5f611e4d82611e01565b611e578185611e0b565b9350611e67818560208601611e1b565b611e7081611a61565b840191505092915050565b611e84816118c4565b82525050565b5f6080820190508181035f830152611ea28187611e43565b9050611eb16020830186611933565b8181036040830152611ec38185611e43565b9050611ed26060830184611e7b565b95945050505050565b5f60ff82169050919050565b611ef081611edb565b8114611efa575f80fd5b50565b5f81359050611f0b81611ee7565b92915050565b5f8060408385031215611f2757611f2661189d565b5b5f611f3485828601611bab565b9250506020611f4585828601611efd565b9150509250929050565b5f60e082019050611f625f83018a611933565b611f6f6020830189611e7b565b611f7c6040830188611933565b611f896060830187611933565b611f966080830186611933565b611fa360a0830185611933565b611fb060c0830184611d29565b98975050505050505050565b5f60a082019050611fcf5f830188611d29565b8181036020830152611fe18187611e43565b9050611ff06040830186611933565b81810360608301526120028185611e43565b90506120116080830184611e7b565b9695505050505050565b5f60c08201905061202e5f830189611933565b61203b6020830188611e7b565b6120486040830187611933565b6120556060830186611933565b6120626080830185611933565b61206f60a0830184611d29565b979650505050505050565b7f5450726f766964657220646f6573206e6f742065786973742e000000000000005f82015250565b5f6120ae601983611e0b565b91506120b98261207a565b602082019050919050565b5f6020820190508181035f8301526120db816120a2565b9050919050565b7f4e487b71000000000000000000000000000000000000000000000000000000005f52601160045260245ffd5b5f6121198261192a565b91507fffffffffffffffffffffffffffffffffffffffffffffffffffffffffffffffff820361214b5761214a6120e2565b5b600182019050919050565b7f4e487b71000000000000000000000000000000000000000000000000000000005f52602260045260245ffd5b5f600282049050600182168061219a57607f821691505b6020821081036121ad576121ac612156565b5b50919050565b5f819050815f5260205f209050919050565b5f6020601f8301049050919050565b5f82821b905092915050565b5f6008830261220f7fffffffffffffffffffffffffffffffffffffffffffffffffffffffffffffffff826121d4565b61221986836121d4565b95508019841693508086168417925050509392505050565b5f819050919050565b5f61225461224f61224a8461192a565b612231565b61192a565b9050919050565b5f819050919050565b61226d8361223a565b6122816122798261225b565b8484546121e0565b825550505050565b5f90565b612295612289565b6122a0818484612264565b505050565b5b818110156122c3576122b85f8261228d565b6001810190506122a6565b5050565b601f821115612308576122d9816121b3565b6122e2846121c5565b810160208510156122f1578190505b6123056122fd856121c5565b8301826122a5565b50505b505050565b5f82821c905092915050565b5f6123285f198460080261230d565b1980831691505092915050565b5f6123408383612319565b9150826002028217905092915050565b61235982611e01565b67ffffffffffffffff81111561237257612371611a71565b5b61237c8254612183565b6123878282856122c7565b5f60209050601f8311600181146123b8575f84156123a6578287015190505b6123b08582612335565b865550612417565b601f1984166123c6866121b3565b5f5b828110156123ed578489015182556001820191506020850194506020810190506123c8565b8683101561240a5784890151612406601f891682612319565b8355505b6001600288020188555050505b505050505050565b5f60a0820190506124325f830188611933565b81810360208301526124448187611e43565b90506124536040830186611933565b81810360608301526124658185611e43565b90506124746080830184611e7b565b9695505050505050565b7f436c69656e7420646f6573206e6f742065786973742e000000000000000000005f82015250565b5f6124b2601683611e0b565b91506124bd8261247e565b602082019050919050565b5f6020820190508181035f8301526124df816124a6565b9050919050565b7f54436f6d706f6e656e7420646f6573206e6f742065786973742e0000000000005f82015250565b5f61251a601a83611e0b565b9150612525826124e6565b602082019050919050565b5f6020820190508181035f8301526125478161250e565b9050919050565b7f52656e74616c207072696365206d7573742062652067726561746572207468615f8201527f6e207a65726f2e00000000000000000000000000000000000000000000000000602082015250565b5f6125a8602783611e0b565b91506125b38261254e565b604082019050919050565b5f6020820190508181035f8301526125d58161259c565b9050919050565b5f6125e68261192a565b91506125f18361192a565b9250828201905080821115612609576126086120e2565b5b92915050565b7f4e487b71000000000000000000000000000000000000000000000000000000005f52601260045260245ffd5b5f6126468261192a565b91506126518361192a565b9250826126615761266061260f565b5b828204905092915050565b5f6126768261192a565b91506126818361192a565b925082820261268f8161192a565b915082820484148315176126a6576126a56120e2565b5b5092915050565b7f57726f6e672072656e74616c20707269636500000000000000000000000000005f82015250565b5f6126e1601283611e0b565b91506126ec826126ad565b602082019050919050565b5f6020820190508181035f83015261270e816126d5565b9050919050565b5f60a0820190506127285f830188611933565b6127356020830187611933565b6127426040830186611e7b565b61274f6060830185611933565b61275c6080830184611933565b9695505050505050565b7f436c69656e7420616c726561647920726567697374657265642e0000000000005f82015250565b5f61279a601a83611e0b565b91506127a582612766565b602082019050919050565b5f6020820190508181035f8301526127c78161278e565b9050919050565b5f6040820190506127e15f830185611e7b565b81810360208301526127f38184611e43565b90509392505050565b7f526174696e67206d757374206265206265747765656e203120616e6420352e005f82015250565b5f612830601f83611e0b565b915061283b826127fc565b602082019050919050565b5f6020820190508181035f83015261285d81612824565b9050919050565b7f4f6e6c792074686520636c69656e742063616e2072617465207468697320636f5f8201527f6e74726163742e00000000000000000000000000000000000000000000000000602082015250565b5f6128be602783611e0b565b91506128c982612864565b604082019050919050565b5f6020820190508181035f8301526128eb816128b2565b9050919050565b7f52656e74616c20706572696f64206e6f742079657420656e6465642e000000005f82015250565b5f612926601c83611e0b565b9150612931826128f2565b602082019050919050565b5f6020820190508181035f8301526129538161291a565b9050919050565b7f534c4120636f6e747261637420616c72656164792072617465642e00000000005f82015250565b5f61298e601b83611e0b565b91506129998261295a565b602082019050919050565b5f6020820190508181035f8301526129bb81612982565b9050919050565b6129cb81611edb565b82525050565b5f6040820190506129e45f830185611933565b6129f160208301846129c2565b9392505050565b7f5450726f766964657220616c726561647920726567697374657265642e0000005f82015250565b5f612a2c601d83611e0b565b9150612a37826129f8565b602082019050919050565b5f6020820190508181035f830152612a5981612a20565b905091905056fea26469706673582212209a10c22fdc1d1abf7289e9d554a33bad5546930e1035eec8b1dfc2a06eef949b64736f6c63430008150033",
  "immutableReferences": {},
  "source": "//SPDX-License-Identifier: MIT\npragma solidity >=0.4.22 <8.10.0;\n\ncontract Marketplace {\n    // ----------------- client -----------------------\n    struct TClient {\n        bool exists;\n        string name;\n    }\n\n    mapping(address => TClient) private clients;\n\n    address[] private clientList;\n    uint256 public clientCount;\n\n    // Event to be emitted when a new client is registered\n    event ClientRegisteredEvent(address clientAddress, string name);\n\n    // Modifier to check if client is not already registered\n    modifier isNotClient() {\n        require(!clients[msg.sender].exists, \"Client already registered.\");\n        _;\n    }\n\n    // Modifier to check if client is registered\n    modifier isClient() {\n        require(clients[msg.sender].exists, \"Client does not exist.\");\n        _;\n    }\n\n    // Function to register a new client\n    function registerClient(string memory name) public isNotClient {\n        clients[msg.sender] = TClient({exists: true, name: name});\n        clientList.push(msg.sender);\n        clientCount++;\n        emit ClientRegisteredEvent(msg.sender, name);\n    }\n\n    // Function to check if a client has an account\n    function clientHasAccount(address _clientAddress) public view returns (bool) {\n        return clients[_clientAddress].exists;\n    }\n\n    // Function to get all clients\n    function getAllClients() public view returns (address[] memory) {\n        return clientList;\n    }\n\n    // ----------------- provider -----------------------\n    struct TProvider {\n        bool exists;\n        string name;\n        uint256 ratingCount;\n        uint256 ratingSum;\n    }\n\n    mapping(address => TProvider) private providers;\n    \n    address[] private providerList;\n    uint256 public providerCount;\n\n    // Event to be emitted when a new provider is registered\n    event ProviderRegisteredEvent(address providerAddress, string name);\n\n    // Modifier to check if provider is not already registered\n    modifier isNotProvider() {\n        require(!providers[msg.sender].exists, \"TProvider already registered.\");\n        _;\n    }\n\n    // Modifier to check if provider is registered\n    modifier isProvider() {\n        require(providers[msg.sender].exists, \"TProvider does not exist.\");\n        _;\n    }\n\n    // Function to register a new provider\n    function registerProvider(string memory name) public isNotProvider {\n        providers[msg.sender] = TProvider({exists: true, name: name, ratingSum: 0, ratingCount: 0});\n        providerList.push(msg.sender);\n        providerCount++;\n        emit ProviderRegisteredEvent(msg.sender, name);\n    }\n\n    // Function to check if a provider has an account\n    function providerHasAccount(address _providerAddress) public view returns (bool) {\n        return providers[_providerAddress].exists;\n    }\n\n    // Function to get provider rating\n    function getProviderRating(address _provider) public view returns (uint256, uint256) {\n        TProvider storage provider = providers[_provider];\n        return (provider.ratingSum, provider.ratingCount);\n    }\n\n    // Function to get all providers\n    function getAllProviders() public view returns (address[] memory) {\n        return providerList;\n    }\n\n    // ----------------- component -----------------------\n    struct TComponent {\n        bool exists;\n        string name;\n        uint256 price;\n        string information;\n        address provider;\n    }\n\n    // Mapping from component ID to TComponent\n    mapping(uint256 => TComponent) public components;\n    uint256 public componentCount;\n    uint256[] private componentList;\n\n    // Event to be emitted when a new component is created\n    event NewComponentAddedEvent(uint256 componentId, string name, uint256 price, string information, address provider);\n\n    // Modifier to check if component is not already registered\n    modifier isNotComponentExist(uint256 _componentId) {\n        require(!components[_componentId].exists, \"TComponent does exist.\");\n        _;\n    }\n\n    // Modifier to check if component is registered\n    modifier isComponentExists(uint256 _componentId) {\n        require(components[_componentId].exists, \"TComponent does not exist.\");\n        _;\n    }\n\n    // Function to add new component\n    function addComponent(string memory _name, uint256 price, string memory information) public isProvider {\n        uint256 newComponentId = componentCount++;\n        components[newComponentId] = TComponent({name: _name, provider: msg.sender, price: price, information: information, exists: true});\n        componentList.push(newComponentId);\n        emit NewComponentAddedEvent(newComponentId, _name, price, information, msg.sender);\n    }\n\n    // Function to get component details\n    function getComponent(uint256 _componentId) public view isComponentExists(_componentId) returns (string memory, uint256, string memory, address) {\n        TComponent storage component = components[_componentId];\n        return (component.name, component.price, component.information, component.provider);\n    }\n\n    function getComponentPrice(uint256 _componentId) public view isComponentExists(_componentId) returns (uint256) {\n        TComponent storage component = components[_componentId];\n        return (component.price);\n    }\n\n    // Function to get all components\n    function getAllComponents() public view returns (uint256[] memory) {\n        return componentList;\n    }\n\n    // ----------------- sla contract -----------------------\n    struct TSLAContract {\n        uint256 componentId;\n        address client;\n        uint256 rentalDuration;\n        uint256 rentalPrice;\n        uint256 rentStartTime;\n        uint256 rentEndTime;\n        bool isCompleted;\n    }  \n\n    // Mapping from sla contract ID to SLa contract\n    mapping(uint256 => TSLAContract) public slaContracts;\n    uint256 public contractCount;\n    uint256[] private slaContractList;\n\n    // Event to be emitted when a new sla Contract is created\n    event SlaContractsCreatedEvent(uint256 contractId, uint256 componentId, address client, uint256 rentalDuration, uint256 rentEndTime);\n\n    // Event to be emitted when an SLA contract is rated\n    event SLAContractRatedEvent(uint256 contractId, uint8 rating);\n\n    // Function for clients to rent a component\n    function rentComponent(uint256 _componentId, uint256 _rentalDuration) public payable isClient isComponentExists(_componentId) {\n        require(msg.value > 0, \"Rental price must be greater than zero.\");\n        \n        uint256 rentEndTime = block.timestamp + _rentalDuration;\n        uint256 componentPrice = getComponentPrice(_componentId);\n        uint256 rentPrice = componentPrice * (_rentalDuration/60);\n\n        require(msg.value == rentPrice, \"Wrong rental price\");    \n        \n        slaContracts[contractCount] = TSLAContract({\n            componentId: _componentId,\n            client: msg.sender,\n            rentalDuration: _rentalDuration,\n            rentalPrice: msg.value,\n            rentStartTime: block.timestamp,\n            rentEndTime: rentEndTime,\n            isCompleted: false\n        });\n\n        slaContractList.push(contractCount);\n\n        emit SlaContractsCreatedEvent(contractCount, _componentId, msg.sender, _rentalDuration, rentEndTime);\n        contractCount++;\n    }\n\n    // Function to rate an SLA contract\n    function rateSLAContract(uint256 _contractId, uint8 _rating) public isClient {\n        require(_rating >= 1 && _rating <= 5, \"Rating must be between 1 and 5.\");\n        TSLAContract storage slaContract = slaContracts[_contractId];\n        require(slaContract.client == msg.sender, \"Only the client can rate this contract.\");\n        require(block.timestamp > slaContract.rentEndTime, \"Rental period not yet ended.\");\n        require(!slaContract.isCompleted, \"SLA contract already rated.\");\n\n        TProvider storage provider = providers[components[slaContract.componentId].provider];\n        provider.ratingSum += _rating;\n        provider.ratingCount++;\n\n        slaContract.isCompleted = true;\n\n        emit SLAContractRatedEvent(_contractId, _rating);\n    }\n    \n        // Function to get SLA contract details\n    function getSLAContract(uint256 _contractId) public view returns (uint256, address, uint256, uint256, uint256, bool) {\n        TSLAContract storage slaContract = slaContracts[_contractId];\n        return (\n            slaContract.componentId,\n            slaContract.client,\n            slaContract.rentalDuration,\n            slaContract.rentalPrice,\n            slaContract.rentEndTime,\n            slaContract.isCompleted\n        );\n    }\n\n    // Function to get all SLA contracts\n    function getAllSLAContracts() public view returns (uint256[] memory) {\n        return slaContractList;\n    }\n}\n",
  "sourcePath": "/home/fraisier/testbed/smart-contracts/contracts/Marketplace.sol",
  "compiler": {
    "name": "solc",
    "version": "0.8.21+commit.d9974bed.Emscripten.clang"
  },
  "schemaVersion": "3.4.16",
  "updatedAt": "2024-06-06T10:13:08.905Z",
  "networkType": "ethereum",
  "devdoc": {
    "kind": "dev",
    "methods": {},
    "version": 1
  },
  "userdoc": {
    "kind": "user",
    "methods": {},
    "version": 1
  }
}