{
  "contractName": "Marketplace",
  "abi": [
    {
      "anonymous": false,
      "inputs": [
        {
          "indexed": false,
          "internalType": "address",
          "name": "clientAddress",
          "type": "address"
        }
      ],
      "name": "ClientRegisteredEvent",
      "type": "event"
    },
    {
      "anonymous": false,
      "inputs": [
        {
          "indexed": false,
          "internalType": "uint256",
          "name": "componentId",
          "type": "uint256"
        },
        {
          "indexed": false,
          "internalType": "string",
          "name": "name",
          "type": "string"
        },
        {
          "indexed": false,
          "internalType": "address",
          "name": "provider",
          "type": "address"
        }
      ],
      "name": "NewComponentAddedEvent",
      "type": "event"
    },
    {
      "anonymous": false,
      "inputs": [
        {
          "indexed": false,
          "internalType": "address",
          "name": "providerAddress",
          "type": "address"
        }
      ],
      "name": "ProviderRegisteredEvent",
      "type": "event"
    },
    {
      "anonymous": false,
      "inputs": [
        {
          "indexed": false,
          "internalType": "uint256",
          "name": "contractId",
          "type": "uint256"
        },
        {
          "indexed": false,
          "internalType": "uint8",
          "name": "rating",
          "type": "uint8"
        }
      ],
      "name": "SLAContractRatedEvent",
      "type": "event"
    },
    {
      "anonymous": false,
      "inputs": [
        {
          "indexed": false,
          "internalType": "uint256",
          "name": "contractId",
          "type": "uint256"
        },
        {
          "indexed": false,
          "internalType": "uint256",
          "name": "componentId",
          "type": "uint256"
        },
        {
          "indexed": false,
          "internalType": "address",
          "name": "client",
          "type": "address"
        },
        {
          "indexed": false,
          "internalType": "uint256",
          "name": "rentEndTime",
          "type": "uint256"
        }
      ],
      "name": "SlaContractsCreatedEvent",
      "type": "event"
    },
    {
      "inputs": [],
      "name": "componentCount",
      "outputs": [
        {
          "internalType": "uint256",
          "name": "",
          "type": "uint256"
        }
      ],
      "stateMutability": "view",
      "type": "function"
    },
    {
      "inputs": [
        {
          "internalType": "uint256",
          "name": "",
          "type": "uint256"
        }
      ],
      "name": "components",
      "outputs": [
        {
          "internalType": "bool",
          "name": "exists",
          "type": "bool"
        },
        {
          "internalType": "string",
          "name": "name",
          "type": "string"
        },
        {
          "internalType": "address",
          "name": "provider",
          "type": "address"
        }
      ],
      "stateMutability": "view",
      "type": "function"
    },
    {
      "inputs": [],
      "name": "contractCount",
      "outputs": [
        {
          "internalType": "uint256",
          "name": "",
          "type": "uint256"
        }
      ],
      "stateMutability": "view",
      "type": "function"
    },
    {
      "inputs": [
        {
          "internalType": "uint256",
          "name": "",
          "type": "uint256"
        }
      ],
      "name": "slaContracts",
      "outputs": [
        {
          "internalType": "uint256",
          "name": "componentId",
          "type": "uint256"
        },
        {
          "internalType": "address",
          "name": "client",
          "type": "address"
        },
        {
          "internalType": "uint256",
          "name": "rentalDuration",
          "type": "uint256"
        },
        {
          "internalType": "uint256",
          "name": "rentalPrice",
          "type": "uint256"
        },
        {
          "internalType": "uint256",
          "name": "rentStartTime",
          "type": "uint256"
        },
        {
          "internalType": "uint256",
          "name": "rentEndTime",
          "type": "uint256"
        },
        {
          "internalType": "bool",
          "name": "isCompleted",
          "type": "bool"
        }
      ],
      "stateMutability": "view",
      "type": "function"
    },
    {
      "inputs": [],
      "name": "registerClient",
      "outputs": [],
      "stateMutability": "nonpayable",
      "type": "function"
    },
    {
      "inputs": [
        {
          "internalType": "address",
          "name": "_clientAddress",
          "type": "address"
        }
      ],
      "name": "clientHasAccount",
      "outputs": [
        {
          "internalType": "bool",
          "name": "",
          "type": "bool"
        }
      ],
      "stateMutability": "view",
      "type": "function"
    },
    {
      "inputs": [],
      "name": "registerProvider",
      "outputs": [],
      "stateMutability": "nonpayable",
      "type": "function"
    },
    {
      "inputs": [
        {
          "internalType": "address",
          "name": "_providerAddress",
          "type": "address"
        }
      ],
      "name": "providerHasAccount",
      "outputs": [
        {
          "internalType": "bool",
          "name": "",
          "type": "bool"
        }
      ],
      "stateMutability": "view",
      "type": "function"
    },
    {
      "inputs": [
        {
          "internalType": "address",
          "name": "_provider",
          "type": "address"
        }
      ],
      "name": "getProviderRating",
      "outputs": [
        {
          "internalType": "uint256",
          "name": "",
          "type": "uint256"
        },
        {
          "internalType": "uint256",
          "name": "",
          "type": "uint256"
        }
      ],
      "stateMutability": "view",
      "type": "function"
    },
    {
      "inputs": [
        {
          "internalType": "string",
          "name": "_name",
          "type": "string"
        }
      ],
      "name": "addComponent",
      "outputs": [],
      "stateMutability": "nonpayable",
      "type": "function"
    },
    {
      "inputs": [
        {
          "internalType": "uint256",
          "name": "_componentId",
          "type": "uint256"
        }
      ],
      "name": "getComponent",
      "outputs": [
        {
          "internalType": "string",
          "name": "",
          "type": "string"
        },
        {
          "internalType": "address",
          "name": "",
          "type": "address"
        }
      ],
      "stateMutability": "view",
      "type": "function"
    },
    {
      "inputs": [
        {
          "internalType": "uint256",
          "name": "_componentId",
          "type": "uint256"
        },
        {
          "internalType": "uint256",
          "name": "_rentalDuration",
          "type": "uint256"
        }
      ],
      "name": "rentComponent",
      "outputs": [],
      "stateMutability": "payable",
      "type": "function"
    },
    {
      "inputs": [
        {
          "internalType": "uint256",
          "name": "_contractId",
          "type": "uint256"
        },
        {
          "internalType": "uint8",
          "name": "_rating",
          "type": "uint8"
        }
      ],
      "name": "rateSLAContract",
      "outputs": [],
      "stateMutability": "nonpayable",
      "type": "function"
    },
    {
      "inputs": [
        {
          "internalType": "uint256",
          "name": "_contractId",
          "type": "uint256"
        }
      ],
      "name": "getSLAContract",
      "outputs": [
        {
          "internalType": "uint256",
          "name": "",
          "type": "uint256"
        },
        {
          "internalType": "address",
          "name": "",
          "type": "address"
        },
        {
          "internalType": "uint256",
          "name": "",
          "type": "uint256"
        },
        {
          "internalType": "uint256",
          "name": "",
          "type": "uint256"
        },
        {
          "internalType": "uint256",
          "name": "",
          "type": "uint256"
        },
        {
          "internalType": "bool",
          "name": "",
          "type": "bool"
        }
      ],
      "stateMutability": "view",
      "type": "function"
    }
  ],
  "bytecode": "0x608060405234801561000f575f80fd5b50611f898061001d5f395ff3fe6080604052600436106100dc575f3560e01c80638736381a1161007e578063c5d574fe11610058578063c5d574fe146102ae578063da1f7409146102ec578063e141b96d14610328578063f769c6d014610369576100dc565b80638736381a1461021a5780639ce9e42314610244578063b4094bd91461026c576100dc565b80634390b946116100ba5780634390b946146101835780634f27da181461019f578063517632ff146101dc5780636d9fb28714610204576100dc565b8063017a3ccf146100e05780631fe26e9d1461011d57806341aad1ea14610147575b5f80fd5b3480156100eb575f80fd5b50610106600480360381019061010191906111ba565b61037f565b6040516101149291906111fd565b60405180910390f35b348015610128575f80fd5b506101316103d5565b60405161013e9190611224565b60405180910390f35b348015610152575f80fd5b5061016d600480360381019061016891906111ba565b6103db565b60405161017a9190611257565b60405180910390f35b61019d6004803603810190610198919061129a565b61042f565b005b3480156101aa575f80fd5b506101c560048036038101906101c091906112d8565b6106bc565b6040516101d392919061139c565b60405180910390f35b3480156101e7575f80fd5b5061020260048036038101906101fd91906114f6565b6107f0565b005b34801561020f575f80fd5b50610218610994565b005b348015610225575f80fd5b5061022e610ac6565b60405161023b9190611224565b60405180910390f35b34801561024f575f80fd5b5061026a60048036038101906102659190611573565b610acc565b005b348015610277575f80fd5b50610292600480360381019061028d91906112d8565b610df0565b6040516102a597969594939291906115b1565b60405180910390f35b3480156102b9575f80fd5b506102d460048036038101906102cf91906112d8565b610e59565b6040516102e39392919061161e565b60405180910390f35b3480156102f7575f80fd5b50610312600480360381019061030d91906111ba565b610f30565b60405161031f9190611257565b60405180910390f35b348015610333575f80fd5b5061034e600480360381019061034991906112d8565b610f83565b6040516103609695949392919061165a565b60405180910390f35b348015610374575f80fd5b5061037d610ffb565b005b5f805f60015f8573ffffffffffffffffffffffffffffffffffffffff1673ffffffffffffffffffffffffffffffffffffffff1681526020019081526020015f209050806002015481600101549250925050915091565b60035481565b5f60015f8373ffffffffffffffffffffffffffffffffffffffff1673ffffffffffffffffffffffffffffffffffffffff1681526020019081526020015f205f015f9054906101000a900460ff169050919050565b5f803373ffffffffffffffffffffffffffffffffffffffff1673ffffffffffffffffffffffffffffffffffffffff1681526020019081526020015f205f015f9054906101000a900460ff166104b9576040517f08c379a00000000000000000000000000000000000000000000000000000000081526004016104b090611703565b60405180910390fd5b8160025f8281526020019081526020015f205f015f9054906101000a900460ff16610519576040517f08c379a00000000000000000000000000000000000000000000000000000000081526004016105109061176b565b60405180910390fd5b5f341161055b576040517f08c379a0000000000000000000000000000000000000000000000000000000008152600401610552906117f9565b60405180910390fd5b5f82426105689190611844565b90506040518060e001604052808581526020013373ffffffffffffffffffffffffffffffffffffffff1681526020018481526020013481526020014281526020018281526020015f151581525060045f60055481526020019081526020015f205f820151815f01556020820151816001015f6101000a81548173ffffffffffffffffffffffffffffffffffffffff021916908373ffffffffffffffffffffffffffffffffffffffff16021790555060408201518160020155606082015181600301556080820151816004015560a0820151816005015560c0820151816006015f6101000a81548160ff0219169083151502179055509050507fe3319229091be03881239432020703e35dffa42c2875e58ececaf56fa7b2edd86005548533846040516106979493929190611877565b60405180910390a160055f8154809291906106b1906118ba565b919050555050505050565b60605f8260025f8281526020019081526020015f205f015f9054906101000a900460ff1661071f576040517f08c379a00000000000000000000000000000000000000000000000000000000081526004016107169061176b565b60405180910390fd5b5f60025f8681526020019081526020015f20905080600101816002015f9054906101000a900473ffffffffffffffffffffffffffffffffffffffff168180546107679061192e565b80601f01602080910402602001604051908101604052809291908181526020018280546107939061192e565b80156107de5780601f106107b5576101008083540402835291602001916107de565b820191905f5260205f20905b8154815290600101906020018083116107c157829003601f168201915b50505050509150935093505050915091565b60015f3373ffffffffffffffffffffffffffffffffffffffff1673ffffffffffffffffffffffffffffffffffffffff1681526020019081526020015f205f015f9054906101000a900460ff1661087b576040517f08c379a0000000000000000000000000000000000000000000000000000000008152600401610872906119a8565b60405180910390fd5b5f60035f81548092919061088e906118ba565b91905055905060405180606001604052806001151581526020018381526020013373ffffffffffffffffffffffffffffffffffffffff1681525060025f8381526020019081526020015f205f820151815f015f6101000a81548160ff021916908315150217905550602082015181600101908161090b9190611b63565b506040820151816002015f6101000a81548173ffffffffffffffffffffffffffffffffffffffff021916908373ffffffffffffffffffffffffffffffffffffffff1602179055509050507fb92ad3ee361841602745f72f8526144bc6fadd7162ed6be2dcfe3f6ae70b42eb81833360405161098893929190611c32565b60405180910390a15050565b5f803373ffffffffffffffffffffffffffffffffffffffff1673ffffffffffffffffffffffffffffffffffffffff1681526020019081526020015f205f015f9054906101000a900460ff1615610a1f576040517f08c379a0000000000000000000000000000000000000000000000000000000008152600401610a1690611cb8565b60405180910390fd5b6040518060200160405280600115158152505f803373ffffffffffffffffffffffffffffffffffffffff1673ffffffffffffffffffffffffffffffffffffffff1681526020019081526020015f205f820151815f015f6101000a81548160ff0219169083151502179055509050507fe99669d739d4a4d28fafb3036829a0f4aed9262426d71fb08c3cab3a58e4dc9433604051610abc9190611cd6565b60405180910390a1565b60055481565b5f803373ffffffffffffffffffffffffffffffffffffffff1673ffffffffffffffffffffffffffffffffffffffff1681526020019081526020015f205f015f9054906101000a900460ff16610b56576040517f08c379a0000000000000000000000000000000000000000000000000000000008152600401610b4d90611703565b60405180910390fd5b60018160ff1610158015610b6e575060058160ff1611155b610bad576040517f08c379a0000000000000000000000000000000000000000000000000000000008152600401610ba490611d39565b60405180910390fd5b5f60045f8481526020019081526020015f2090503373ffffffffffffffffffffffffffffffffffffffff16816001015f9054906101000a900473ffffffffffffffffffffffffffffffffffffffff1673ffffffffffffffffffffffffffffffffffffffff1614610c52576040517f08c379a0000000000000000000000000000000000000000000000000000000008152600401610c4990611dc7565b60405180910390fd5b80600501544211610c98576040517f08c379a0000000000000000000000000000000000000000000000000000000008152600401610c8f90611e2f565b60405180910390fd5b806006015f9054906101000a900460ff1615610ce9576040517f08c379a0000000000000000000000000000000000000000000000000000000008152600401610ce090611e97565b60405180910390fd5b5f60015f60025f855f015481526020019081526020015f206002015f9054906101000a900473ffffffffffffffffffffffffffffffffffffffff1673ffffffffffffffffffffffffffffffffffffffff1673ffffffffffffffffffffffffffffffffffffffff1681526020019081526020015f2090508260ff16816002015f828254610d759190611844565b92505081905550806001015f815480929190610d90906118ba565b91905055506001826006015f6101000a81548160ff0219169083151502179055507f18095dc6e65913fa7d19c10e51c0b33c253f580d481c39f7cf315f48aff1529f8484604051610de2929190611ec4565b60405180910390a150505050565b6004602052805f5260405f205f91509050805f015490806001015f9054906101000a900473ffffffffffffffffffffffffffffffffffffffff1690806002015490806003015490806004015490806005015490806006015f9054906101000a900460ff16905087565b6002602052805f5260405f205f91509050805f015f9054906101000a900460ff1690806001018054610e8a9061192e565b80601f0160208091040260200160405190810160405280929190818152602001828054610eb69061192e565b8015610f015780601f10610ed857610100808354040283529160200191610f01565b820191905f5260205f20905b815481529060010190602001808311610ee457829003601f168201915b505050505090806002015f9054906101000a900473ffffffffffffffffffffffffffffffffffffffff16905083565b5f805f8373ffffffffffffffffffffffffffffffffffffffff1673ffffffffffffffffffffffffffffffffffffffff1681526020019081526020015f205f015f9054906101000a900460ff169050919050565b5f805f805f805f60045f8981526020019081526020015f209050805f0154816001015f9054906101000a900473ffffffffffffffffffffffffffffffffffffffff16826002015483600301548460050154856006015f9054906101000a900460ff169650965096509650965096505091939550919395565b60015f3373ffffffffffffffffffffffffffffffffffffffff1673ffffffffffffffffffffffffffffffffffffffff1681526020019081526020015f205f015f9054906101000a900460ff1615611087576040517f08c379a000000000000000000000000000000000000000000000000000000000815260040161107e90611f35565b60405180910390fd5b60405180606001604052806001151581526020015f81526020015f81525060015f3373ffffffffffffffffffffffffffffffffffffffff1673ffffffffffffffffffffffffffffffffffffffff1681526020019081526020015f205f820151815f015f6101000a81548160ff02191690831515021790555060208201518160010155604082015181600201559050507f0bc79337df326bb5fd1a17b3e8e9fa9b5102945e9d585af2d33c6d976d1fc545336040516111459190611cd6565b60405180910390a1565b5f604051905090565b5f80fd5b5f80fd5b5f73ffffffffffffffffffffffffffffffffffffffff82169050919050565b5f61118982611160565b9050919050565b6111998161117f565b81146111a3575f80fd5b50565b5f813590506111b481611190565b92915050565b5f602082840312156111cf576111ce611158565b5b5f6111dc848285016111a6565b91505092915050565b5f819050919050565b6111f7816111e5565b82525050565b5f6040820190506112105f8301856111ee565b61121d60208301846111ee565b9392505050565b5f6020820190506112375f8301846111ee565b92915050565b5f8115159050919050565b6112518161123d565b82525050565b5f60208201905061126a5f830184611248565b92915050565b611279816111e5565b8114611283575f80fd5b50565b5f8135905061129481611270565b92915050565b5f80604083850312156112b0576112af611158565b5b5f6112bd85828601611286565b92505060206112ce85828601611286565b9150509250929050565b5f602082840312156112ed576112ec611158565b5b5f6112fa84828501611286565b91505092915050565b5f81519050919050565b5f82825260208201905092915050565b5f5b8381101561133a57808201518184015260208101905061131f565b5f8484015250505050565b5f601f19601f8301169050919050565b5f61135f82611303565b611369818561130d565b935061137981856020860161131d565b61138281611345565b840191505092915050565b6113968161117f565b82525050565b5f6040820190508181035f8301526113b48185611355565b90506113c3602083018461138d565b9392505050565b5f80fd5b5f80fd5b7f4e487b71000000000000000000000000000000000000000000000000000000005f52604160045260245ffd5b61140882611345565b810181811067ffffffffffffffff82111715611427576114266113d2565b5b80604052505050565b5f61143961114f565b905061144582826113ff565b919050565b5f67ffffffffffffffff821115611464576114636113d2565b5b61146d82611345565b9050602081019050919050565b828183375f83830152505050565b5f61149a6114958461144a565b611430565b9050828152602081018484840111156114b6576114b56113ce565b5b6114c184828561147a565b509392505050565b5f82601f8301126114dd576114dc6113ca565b5b81356114ed848260208601611488565b91505092915050565b5f6020828403121561150b5761150a611158565b5b5f82013567ffffffffffffffff8111156115285761152761115c565b5b611534848285016114c9565b91505092915050565b5f60ff82169050919050565b6115528161153d565b811461155c575f80fd5b50565b5f8135905061156d81611549565b92915050565b5f806040838503121561158957611588611158565b5b5f61159685828601611286565b92505060206115a78582860161155f565b9150509250929050565b5f60e0820190506115c45f83018a6111ee565b6115d1602083018961138d565b6115de60408301886111ee565b6115eb60608301876111ee565b6115f860808301866111ee565b61160560a08301856111ee565b61161260c0830184611248565b98975050505050505050565b5f6060820190506116315f830186611248565b81810360208301526116438185611355565b9050611652604083018461138d565b949350505050565b5f60c08201905061166d5f8301896111ee565b61167a602083018861138d565b61168760408301876111ee565b61169460608301866111ee565b6116a160808301856111ee565b6116ae60a0830184611248565b979650505050505050565b7f436c69656e7420646f6573206e6f742065786973742e000000000000000000005f82015250565b5f6116ed60168361130d565b91506116f8826116b9565b602082019050919050565b5f6020820190508181035f83015261171a816116e1565b9050919050565b7f54436f6d706f6e656e7420646f6573206e6f742065786973742e0000000000005f82015250565b5f611755601a8361130d565b915061176082611721565b602082019050919050565b5f6020820190508181035f83015261178281611749565b9050919050565b7f52656e74616c207072696365206d7573742062652067726561746572207468615f8201527f6e207a65726f2e00000000000000000000000000000000000000000000000000602082015250565b5f6117e360278361130d565b91506117ee82611789565b604082019050919050565b5f6020820190508181035f830152611810816117d7565b9050919050565b7f4e487b71000000000000000000000000000000000000000000000000000000005f52601160045260245ffd5b5f61184e826111e5565b9150611859836111e5565b925082820190508082111561187157611870611817565b5b92915050565b5f60808201905061188a5f8301876111ee565b61189760208301866111ee565b6118a4604083018561138d565b6118b160608301846111ee565b95945050505050565b5f6118c4826111e5565b91507fffffffffffffffffffffffffffffffffffffffffffffffffffffffffffffffff82036118f6576118f5611817565b5b600182019050919050565b7f4e487b71000000000000000000000000000000000000000000000000000000005f52602260045260245ffd5b5f600282049050600182168061194557607f821691505b60208210810361195857611957611901565b5b50919050565b7f5450726f766964657220646f6573206e6f742065786973742e000000000000005f82015250565b5f61199260198361130d565b915061199d8261195e565b602082019050919050565b5f6020820190508181035f8301526119bf81611986565b9050919050565b5f819050815f5260205f209050919050565b5f6020601f8301049050919050565b5f82821b905092915050565b5f60088302611a227fffffffffffffffffffffffffffffffffffffffffffffffffffffffffffffffff826119e7565b611a2c86836119e7565b95508019841693508086168417925050509392505050565b5f819050919050565b5f611a67611a62611a5d846111e5565b611a44565b6111e5565b9050919050565b5f819050919050565b611a8083611a4d565b611a94611a8c82611a6e565b8484546119f3565b825550505050565b5f90565b611aa8611a9c565b611ab3818484611a77565b505050565b5b81811015611ad657611acb5f82611aa0565b600181019050611ab9565b5050565b601f821115611b1b57611aec816119c6565b611af5846119d8565b81016020851015611b04578190505b611b18611b10856119d8565b830182611ab8565b50505b505050565b5f82821c905092915050565b5f611b3b5f1984600802611b20565b1980831691505092915050565b5f611b538383611b2c565b9150826002028217905092915050565b611b6c82611303565b67ffffffffffffffff811115611b8557611b846113d2565b5b611b8f825461192e565b611b9a828285611ada565b5f60209050601f831160018114611bcb575f8415611bb9578287015190505b611bc38582611b48565b865550611c2a565b601f198416611bd9866119c6565b5f5b82811015611c0057848901518255600182019150602085019450602081019050611bdb565b86831015611c1d5784890151611c19601f891682611b2c565b8355505b6001600288020188555050505b505050505050565b5f606082019050611c455f8301866111ee565b8181036020830152611c578185611355565b9050611c66604083018461138d565b949350505050565b7f436c69656e7420616c726561647920726567697374657265642e0000000000005f82015250565b5f611ca2601a8361130d565b9150611cad82611c6e565b602082019050919050565b5f6020820190508181035f830152611ccf81611c96565b9050919050565b5f602082019050611ce95f83018461138d565b92915050565b7f526174696e67206d757374206265206265747765656e203120616e6420352e005f82015250565b5f611d23601f8361130d565b9150611d2e82611cef565b602082019050919050565b5f6020820190508181035f830152611d5081611d17565b9050919050565b7f4f6e6c792074686520636c69656e742063616e2072617465207468697320636f5f8201527f6e74726163742e00000000000000000000000000000000000000000000000000602082015250565b5f611db160278361130d565b9150611dbc82611d57565b604082019050919050565b5f6020820190508181035f830152611dde81611da5565b9050919050565b7f52656e74616c20706572696f64206e6f742079657420656e6465642e000000005f82015250565b5f611e19601c8361130d565b9150611e2482611de5565b602082019050919050565b5f6020820190508181035f830152611e4681611e0d565b9050919050565b7f534c4120636f6e747261637420616c72656164792072617465642e00000000005f82015250565b5f611e81601b8361130d565b9150611e8c82611e4d565b602082019050919050565b5f6020820190508181035f830152611eae81611e75565b9050919050565b611ebe8161153d565b82525050565b5f604082019050611ed75f8301856111ee565b611ee46020830184611eb5565b9392505050565b7f5450726f766964657220616c726561647920726567697374657265642e0000005f82015250565b5f611f1f601d8361130d565b9150611f2a82611eeb565b602082019050919050565b5f6020820190508181035f830152611f4c81611f13565b905091905056fea26469706673582212208d63501c6c5b1429cf8ed478e448ccf07b5593c22807d5f3a06cb907d9bba2c364736f6c63430008150033",
  "immutableReferences": {},
  "source": "//SPDX-License-Identifier: MIT\npragma solidity >=0.4.22 <8.10.0;\n\ncontract Marketplace {\n    // ----------------- client -----------------------\n    struct TClient {\n        bool exists;\n    }\n\n    mapping(address => TClient) private clients;\n\n    // Event to be emitted when a new client is registered\n    event ClientRegisteredEvent(address clientAddress);\n\n    // Modifier to check if client is not already registered\n    modifier isNotClient() {\n        require(!clients[msg.sender].exists, \"Client already registered.\");\n        _;\n    }\n\n    // Modifier to check if client is registered\n    modifier isClient() {\n        require(clients[msg.sender].exists, \"Client does not exist.\");\n        _;\n    }\n\n    // Function to register a new client\n    function registerClient() public isNotClient {\n        clients[msg.sender] = TClient({exists: true});\n        emit ClientRegisteredEvent(msg.sender);\n    }\n\n    // Function to check if a client has an account\n    function clientHasAccount(address _clientAddress) public view returns (bool) {\n        return clients[_clientAddress].exists;\n    }\n\n    // ----------------- provider -----------------------\n    struct TProvider {\n        bool exists;\n        uint256 ratingCount;\n        uint256 ratingSum;\n    }\n\n    mapping(address => TProvider) private providers;\n\n    // Event to be emitted when a new provider is registered\n    event ProviderRegisteredEvent(address providerAddress);\n\n    // Modifier to check if provider is not already registered\n    modifier isNotProvider() {\n        require(!providers[msg.sender].exists, \"TProvider already registered.\");\n        _;\n    }\n\n    // Modifier to check if provider is registered\n    modifier isProvider() {\n        require(providers[msg.sender].exists, \"TProvider does not exist.\");\n        _;\n    }\n\n    // Function to register a new provider\n    function registerProvider() public isNotProvider {\n        providers[msg.sender] = TProvider({exists: true, ratingSum: 0, ratingCount: 0});\n        emit ProviderRegisteredEvent(msg.sender);\n    }\n\n    // Function to check if a provider has an account\n    function providerHasAccount(address _providerAddress) public view returns (bool) {\n        return providers[_providerAddress].exists;\n    }\n\n    // Function to get provider rating\n    function getProviderRating(address _provider) public view returns (uint256, uint256) {\n        TProvider storage provider = providers[_provider];\n        return (provider.ratingSum, provider.ratingCount);\n    }\n\n    // ----------------- component -----------------------\n    struct TComponent {\n        bool exists;\n        string name;\n        address provider;\n    }\n\n    // Mapping from component ID to TComponent\n    mapping(uint256 => TComponent) public components;\n    uint256 public componentCount;\n\n    // Event to be emitted when a new component is created\n    event NewComponentAddedEvent(uint256 componentId, string name, address provider);\n\n    // Modifier to check if component is not already registered\n    modifier isNotComponentExist(uint256 _componentId) {\n        require(!components[_componentId].exists, \"TComponent does exist.\");\n        _;\n    }\n\n    // Modifier to check if component is registered\n    modifier isComponentExists(uint256 _componentId) {\n        require(components[_componentId].exists, \"TComponent does not exist.\");\n        _;\n    }\n\n    // Function to add new component\n    function addComponent(string memory _name) public isProvider {\n        uint256 newComponentId = componentCount++;\n        components[newComponentId] = TComponent({name: _name, provider: msg.sender, exists: true});\n        emit NewComponentAddedEvent(newComponentId, _name, msg.sender);\n    }\n\n    // Function to get component details\n    function getComponent(uint256 _componentId) public view isComponentExists(_componentId) returns (string memory, address) {\n        TComponent storage component = components[_componentId];\n        return (component.name, component.provider);\n    }\n\n    // ----------------- sla contract -----------------------\n    struct TSLAContract {\n        uint256 componentId;\n        address client;\n        uint256 rentalDuration;\n        uint256 rentalPrice;\n        uint256 rentStartTime;\n        uint256 rentEndTime;\n        bool isCompleted;\n    }  \n\n    // Mapping from sla contract ID to SLa contract\n    mapping(uint256 => TSLAContract) public slaContracts;\n    uint256 public contractCount;\n\n    // Event to be emitted when a new sla Contract is created\n    event SlaContractsCreatedEvent(uint256 contractId, uint256 componentId, address client, uint256 rentEndTime);\n\n    // Event to be emitted when an SLA contract is rated\n    event SLAContractRatedEvent(uint256 contractId, uint8 rating);\n\n    // Function for clients to rent a component\n    function rentComponent(uint256 _componentId, uint256 _rentalDuration) public payable isClient isComponentExists(_componentId) {\n        require(msg.value > 0, \"Rental price must be greater than zero.\");\n        \n        uint256 rentEndTime = block.timestamp + _rentalDuration;\n        \n        slaContracts[contractCount] = TSLAContract({\n            componentId: _componentId,\n            client: msg.sender,\n            rentalDuration: _rentalDuration,\n            rentalPrice: msg.value,\n            rentStartTime: block.timestamp,\n            rentEndTime: rentEndTime,\n            isCompleted: false\n        });\n\n        emit SlaContractsCreatedEvent(contractCount, _componentId, msg.sender, rentEndTime);\n        contractCount++;\n    }\n\n    // Function to rate an SLA contract\n    function rateSLAContract(uint256 _contractId, uint8 _rating) public isClient {\n        require(_rating >= 1 && _rating <= 5, \"Rating must be between 1 and 5.\");\n        TSLAContract storage slaContract = slaContracts[_contractId];\n        require(slaContract.client == msg.sender, \"Only the client can rate this contract.\");\n        require(block.timestamp > slaContract.rentEndTime, \"Rental period not yet ended.\");\n        require(!slaContract.isCompleted, \"SLA contract already rated.\");\n\n        TProvider storage provider = providers[components[slaContract.componentId].provider];\n        provider.ratingSum += _rating;\n        provider.ratingCount++;\n\n        slaContract.isCompleted = true;\n\n        emit SLAContractRatedEvent(_contractId, _rating);\n    }\n    \n        // Function to get SLA contract details\n    function getSLAContract(uint256 _contractId) public view returns (uint256, address, uint256, uint256, uint256, bool) {\n        TSLAContract storage slaContract = slaContracts[_contractId];\n        return (\n            slaContract.componentId,\n            slaContract.client,\n            slaContract.rentalDuration,\n            slaContract.rentalPrice,\n            slaContract.rentEndTime,\n            slaContract.isCompleted\n        );\n    }\n}\n",
  "sourcePath": "/home/fraisier/testbed/smart-contracts/contracts/Marketplace.sol",
  "compiler": {
    "name": "solc",
    "version": "0.8.21+commit.d9974bed.Emscripten.clang"
  },
  "schemaVersion": "3.4.16",
  "updatedAt": "2024-06-04T15:57:08.765Z",
  "devdoc": {
    "kind": "dev",
    "methods": {},
    "version": 1
  },
  "userdoc": {
    "kind": "user",
    "methods": {},
    "version": 1
  }
}