{
  "contractName": "NotificationStorage",
  "abi": [
    {
      "anonymous": false,
      "inputs": [
        {
          "indexed": false,
          "internalType": "string",
          "name": "title",
          "type": "string"
        },
        {
          "indexed": false,
          "internalType": "string",
          "name": "content",
          "type": "string"
        },
        {
          "indexed": false,
          "internalType": "string",
          "name": "timestamp",
          "type": "string"
        },
        {
          "indexed": false,
          "internalType": "string",
          "name": "sender",
          "type": "string"
        }
      ],
      "name": "NotificationStored",
      "type": "event"
    },
    {
      "inputs": [
        {
          "internalType": "uint256",
          "name": "",
          "type": "uint256"
        }
      ],
      "name": "notifications",
      "outputs": [
        {
          "internalType": "string",
          "name": "title",
          "type": "string"
        },
        {
          "internalType": "string",
          "name": "content",
          "type": "string"
        },
        {
          "internalType": "string",
          "name": "timestamp",
          "type": "string"
        },
        {
          "internalType": "string",
          "name": "sender",
          "type": "string"
        }
      ],
      "stateMutability": "view",
      "type": "function",
      "constant": true
    },
    {
      "inputs": [
        {
          "internalType": "string",
          "name": "_title",
          "type": "string"
        },
        {
          "internalType": "string",
          "name": "_content",
          "type": "string"
        },
        {
          "internalType": "string",
          "name": "_timestamp",
          "type": "string"
        },
        {
          "internalType": "string",
          "name": "_sender",
          "type": "string"
        }
      ],
      "name": "storeNotification",
      "outputs": [],
      "stateMutability": "nonpayable",
      "type": "function"
    },
    {
      "inputs": [
        {
          "internalType": "uint256",
          "name": "_index",
          "type": "uint256"
        }
      ],
      "name": "getNotification",
      "outputs": [
        {
          "internalType": "string",
          "name": "",
          "type": "string"
        },
        {
          "internalType": "string",
          "name": "",
          "type": "string"
        },
        {
          "internalType": "string",
          "name": "",
          "type": "string"
        },
        {
          "internalType": "string",
          "name": "",
          "type": "string"
        }
      ],
      "stateMutability": "view",
      "type": "function",
      "constant": true
    },
    {
      "inputs": [],
      "name": "getNotificationCount",
      "outputs": [
        {
          "internalType": "uint256",
          "name": "",
          "type": "uint256"
        }
      ],
      "stateMutability": "view",
      "type": "function",
      "constant": true
    }
  ],
  "bytecode": "0x608060405234801561000f575f80fd5b50610e1d8061001d5f395ff3fe608060405234801561000f575f80fd5b506004361061004a575f3560e01c806334c1f9441461004e57806396dea93614610081578063c153e97f1461009d578063ecaff8e3146100d0575b5f80fd5b6100686004803603810190610063919061074d565b6100ee565b6040516100789493929190610802565b60405180910390f35b61009b6004803603810190610096919061098d565b610340565b005b6100b760048036038101906100b2919061074d565b610423565b6040516100c79493929190610802565b60405180910390f35b6100d86106fe565b6040516100e59190610a70565b60405180910390f35b5f81815481106100fc575f80fd5b905f5260205f2090600402015f91509050805f01805461011b90610ab6565b80601f016020809104026020016040519081016040528092919081815260200182805461014790610ab6565b80156101925780601f1061016957610100808354040283529160200191610192565b820191905f5260205f20905b81548152906001019060200180831161017557829003601f168201915b5050505050908060010180546101a790610ab6565b80601f01602080910402602001604051908101604052809291908181526020018280546101d390610ab6565b801561021e5780601f106101f55761010080835404028352916020019161021e565b820191905f5260205f20905b81548152906001019060200180831161020157829003601f168201915b50505050509080600201805461023390610ab6565b80601f016020809104026020016040519081016040528092919081815260200182805461025f90610ab6565b80156102aa5780601f10610281576101008083540402835291602001916102aa565b820191905f5260205f20905b81548152906001019060200180831161028d57829003601f168201915b5050505050908060030180546102bf90610ab6565b80601f01602080910402602001604051908101604052809291908181526020018280546102eb90610ab6565b80156103365780601f1061030d57610100808354040283529160200191610336565b820191905f5260205f20905b81548152906001019060200180831161031957829003601f168201915b5050505050905084565b5f604051806080016040528086815260200185815260200184815260200183815250908060018154018082558091505060019003905f5260205f2090600402015f909190919091505f820151815f01908161039b9190610c83565b5060208201518160010190816103b19190610c83565b5060408201518160020190816103c79190610c83565b5060608201518160030190816103dd9190610c83565b5050507f2b940873f2ef90f1dc3fe0128c5c4b42a8db844957c56be4f4b98cab572a14a5848484846040516104159493929190610802565b60405180910390a150505050565b6060806060805f80549050851061046f576040517f08c379a000000000000000000000000000000000000000000000000000000000815260040161046690610d9c565b60405180910390fd5b5f80868154811061048357610482610dba565b5b905f5260205f2090600402016040518060800160405290815f820180546104a990610ab6565b80601f01602080910402602001604051908101604052809291908181526020018280546104d590610ab6565b80156105205780601f106104f757610100808354040283529160200191610520565b820191905f5260205f20905b81548152906001019060200180831161050357829003601f168201915b5050505050815260200160018201805461053990610ab6565b80601f016020809104026020016040519081016040528092919081815260200182805461056590610ab6565b80156105b05780601f10610587576101008083540402835291602001916105b0565b820191905f5260205f20905b81548152906001019060200180831161059357829003601f168201915b505050505081526020016002820180546105c990610ab6565b80601f01602080910402602001604051908101604052809291908181526020018280546105f590610ab6565b80156106405780601f1061061757610100808354040283529160200191610640565b820191905f5260205f20905b81548152906001019060200180831161062357829003601f168201915b5050505050815260200160038201805461065990610ab6565b80601f016020809104026020016040519081016040528092919081815260200182805461068590610ab6565b80156106d05780601f106106a7576101008083540402835291602001916106d0565b820191905f5260205f20905b8154815290600101906020018083116106b357829003601f168201915b5050505050815250509050805f01518160200151826040015183606001519450945094509450509193509193565b5f8080549050905090565b5f604051905090565b5f80fd5b5f80fd5b5f819050919050565b61072c8161071a565b8114610736575f80fd5b50565b5f8135905061074781610723565b92915050565b5f6020828403121561076257610761610712565b5b5f61076f84828501610739565b91505092915050565b5f81519050919050565b5f82825260208201905092915050565b5f5b838110156107af578082015181840152602081019050610794565b5f8484015250505050565b5f601f19601f8301169050919050565b5f6107d482610778565b6107de8185610782565b93506107ee818560208601610792565b6107f7816107ba565b840191505092915050565b5f6080820190508181035f83015261081a81876107ca565b9050818103602083015261082e81866107ca565b9050818103604083015261084281856107ca565b9050818103606083015261085681846107ca565b905095945050505050565b5f80fd5b5f80fd5b7f4e487b71000000000000000000000000000000000000000000000000000000005f52604160045260245ffd5b61089f826107ba565b810181811067ffffffffffffffff821117156108be576108bd610869565b5b80604052505050565b5f6108d0610709565b90506108dc8282610896565b919050565b5f67ffffffffffffffff8211156108fb576108fa610869565b5b610904826107ba565b9050602081019050919050565b828183375f83830152505050565b5f61093161092c846108e1565b6108c7565b90508281526020810184848401111561094d5761094c610865565b5b610958848285610911565b509392505050565b5f82601f83011261097457610973610861565b5b813561098484826020860161091f565b91505092915050565b5f805f80608085870312156109a5576109a4610712565b5b5f85013567ffffffffffffffff8111156109c2576109c1610716565b5b6109ce87828801610960565b945050602085013567ffffffffffffffff8111156109ef576109ee610716565b5b6109fb87828801610960565b935050604085013567ffffffffffffffff811115610a1c57610a1b610716565b5b610a2887828801610960565b925050606085013567ffffffffffffffff811115610a4957610a48610716565b5b610a5587828801610960565b91505092959194509250565b610a6a8161071a565b82525050565b5f602082019050610a835f830184610a61565b92915050565b7f4e487b71000000000000000000000000000000000000000000000000000000005f52602260045260245ffd5b5f6002820490506001821680610acd57607f821691505b602082108103610ae057610adf610a89565b5b50919050565b5f819050815f5260205f209050919050565b5f6020601f8301049050919050565b5f82821b905092915050565b5f60088302610b427fffffffffffffffffffffffffffffffffffffffffffffffffffffffffffffffff82610b07565b610b4c8683610b07565b95508019841693508086168417925050509392505050565b5f819050919050565b5f610b87610b82610b7d8461071a565b610b64565b61071a565b9050919050565b5f819050919050565b610ba083610b6d565b610bb4610bac82610b8e565b848454610b13565b825550505050565b5f90565b610bc8610bbc565b610bd3818484610b97565b505050565b5b81811015610bf657610beb5f82610bc0565b600181019050610bd9565b5050565b601f821115610c3b57610c0c81610ae6565b610c1584610af8565b81016020851015610c24578190505b610c38610c3085610af8565b830182610bd8565b50505b505050565b5f82821c905092915050565b5f610c5b5f1984600802610c40565b1980831691505092915050565b5f610c738383610c4c565b9150826002028217905092915050565b610c8c82610778565b67ffffffffffffffff811115610ca557610ca4610869565b5b610caf8254610ab6565b610cba828285610bfa565b5f60209050601f831160018114610ceb575f8415610cd9578287015190505b610ce38582610c68565b865550610d4a565b601f198416610cf986610ae6565b5f5b82811015610d2057848901518255600182019150602085019450602081019050610cfb565b86831015610d3d5784890151610d39601f891682610c4c565b8355505b6001600288020188555050505b505050505050565b7f496e646578206f7574206f6620626f756e6473000000000000000000000000005f82015250565b5f610d86601383610782565b9150610d9182610d52565b602082019050919050565b5f6020820190508181035f830152610db381610d7a565b9050919050565b7f4e487b71000000000000000000000000000000000000000000000000000000005f52603260045260245ffdfea2646970667358221220f54c34e25408186f51fef201d137939f5529b368f77abe00cf08e5a0bce68f4d64736f6c63430008150033",
  "immutableReferences": {},
  "source": "// SPDX-License-Identifier: MIT\npragma solidity ^0.8.0;\n\ncontract NotificationStorage {\n    struct Notification {\n        string title;\n        string content;\n        string timestamp;\n        string sender;\n    }\n\n    Notification[] public notifications;\n\n    event NotificationStored(string title, string content, string timestamp, string sender);\n\n    function storeNotification(string memory _title, string memory _content, string memory _timestamp, string memory _sender) public {\n        notifications.push(Notification(_title, _content, _timestamp, _sender));\n        emit NotificationStored(_title, _content, _timestamp, _sender);\n    }\n\n    function getNotification(uint _index) public view returns (string memory, string memory, string memory, string memory) {\n        require(_index < notifications.length, \"Index out of bounds\");\n        Notification memory notification = notifications[_index];\n        return (notification.title, notification.content, notification.timestamp, notification.sender);\n    }\n\n    function getNotificationCount() public view returns (uint) {\n        return notifications.length;\n    }\n}",
  "sourcePath": "/home/fraisier/testbed/smart-contracts/contracts/notif-store.sol",
  "compiler": {
    "name": "solc",
    "version": "0.8.21+commit.d9974bed.Emscripten.clang"
  },
  "schemaVersion": "3.4.16",
  "updatedAt": "2024-06-06T10:13:08.761Z",
  "networkType": "ethereum",
  "devdoc": {
    "kind": "dev",
    "methods": {},
    "version": 1
  },
  "userdoc": {
    "kind": "user",
    "methods": {},
    "version": 1
  }
}